{
  "contractName": "Wallet",
  "abi": [
    {
      "inputs": [],
      "stateMutability": "nonpayable",
      "type": "constructor"
    },
    {
      "anonymous": false,
      "inputs": [
        {
          "indexed": false,
          "internalType": "uint256",
          "name": "amount",
          "type": "uint256"
        }
      ],
      "name": "Get",
      "type": "event"
    },
    {
      "anonymous": false,
      "inputs": [
        {
          "indexed": false,
          "internalType": "address",
          "name": "from",
          "type": "address"
        },
        {
          "indexed": false,
          "internalType": "uint256",
          "name": "amount",
          "type": "uint256"
        }
      ],
      "name": "Send",
      "type": "event"
    },
    {
      "inputs": [],
      "name": "send",
      "outputs": [],
      "stateMutability": "payable",
      "type": "function",
      "payable": true
    },
    {
      "inputs": [
        {
          "internalType": "uint256",
          "name": "amount",
          "type": "uint256"
        }
      ],
      "name": "get",
      "outputs": [],
      "stateMutability": "nonpayable",
      "type": "function"
    },
    {
      "inputs": [],
      "name": "balance",
      "outputs": [
        {
          "internalType": "uint256",
          "name": "",
          "type": "uint256"
        }
      ],
      "stateMutability": "view",
      "type": "function",
      "constant": true
    }
  ],
  "bytecode": "0x608060405234801561001057600080fd5b50336000806101000a81548173ffffffffffffffffffffffffffffffffffffffff021916908373ffffffffffffffffffffffffffffffffffffffff16021790555061030d806100606000396000f3fe6080604052600436106100345760003560e01c80639507d39a14610039578063b46300ec14610062578063b69ef8a81461006c575b600080fd5b34801561004557600080fd5b50610060600480360381019061005b91906101f9565b610097565b005b61006a61018a565b005b34801561007857600080fd5b506100816101c5565b60405161008e9190610269565b60405180910390f35b60008054906101000a900473ffffffffffffffffffffffffffffffffffffffff1673ffffffffffffffffffffffffffffffffffffffff163373ffffffffffffffffffffffffffffffffffffffff16146100ef57600080fd5b806100f86101c5565b101561010357600080fd5b60003390508073ffffffffffffffffffffffffffffffffffffffff166108fc839081150290604051600060405180830381858888f1935050505015801561014e573d6000803e3d6000fd5b507f60cd2685acbd0daec1060559941342a5cde5bca0b776bc3193de7b181a25b8e68260405161017e9190610269565b60405180910390a15050565b7f30a3c50752f2552dcc2b93f5b96866280816a986c0c0408cb6778b9fa198288f33346040516101bb929190610240565b60405180910390a1565b60003073ffffffffffffffffffffffffffffffffffffffff1631905090565b6000813590506101f3816102c0565b92915050565b60006020828403121561020b57600080fd5b6000610219848285016101e4565b91505092915050565b61022b81610284565b82525050565b61023a816102b6565b82525050565b60006040820190506102556000830185610222565b6102626020830184610231565b9392505050565b600060208201905061027e6000830184610231565b92915050565b600061028f82610296565b9050919050565b600073ffffffffffffffffffffffffffffffffffffffff82169050919050565b6000819050919050565b6102c9816102b6565b81146102d457600080fd5b5056fea2646970667358221220686b74ffa719f3e318d90c75bc1de69995c58d91059c5f58bd917cbfa08ebbcb64736f6c63430008000033",
  "immutableReferences": {},
  "source": "// SPDX-License-Identifier: MIT\r\n\r\npragma solidity ^0.8.0;\r\n\r\ncontract Wallet {\r\n    address private owner;\r\n\r\n    constructor() {\r\n        owner = msg.sender;\r\n    }\r\n\r\n    event Send(address from, uint256 amount);\r\n    event Get(uint256 amount);\r\n\r\n    function send() public payable {\r\n        emit Send(msg.sender, msg.value);\r\n    }\r\n\r\n    function get(uint256 amount) public {\r\n        require(msg.sender == owner);\r\n        require(balance() >= amount);\r\n        address payable Owner = payable(msg.sender);\r\n        Owner.transfer(amount);\r\n        emit Get(amount);\r\n    }\r\n\r\n    function balance() public view returns (uint256) {\r\n        return address(this).balance;\r\n    }\r\n}\r\n",
  "sourcePath": "D:\\New folder\\Wallet\\contracts\\Wallet.sol",
  "compiler": {
    "name": "solc",
    "version": "0.8.0+commit.c7dfd78e.Emscripten.clang"
  },
  "schemaVersion": "3.4.4",
  "updatedAt": "2022-04-12T12:17:52.260Z",
  "networkType": "ethereum",
  "devdoc": {
    "kind": "dev",
    "methods": {},
    "version": 1
  },
  "userdoc": {
    "kind": "user",
    "methods": {},
    "version": 1
  }
}